{
	"github/OpenZeppelin/openzeppelin-contracts/contracts/token/ERC20/ERC20.sol": {
		"ERC20": {
			"abi": [
				{
					"anonymous": false,
					"inputs": [
						{
							"indexed": true,
							"internalType": "address",
							"name": "owner",
							"type": "address"
						},
						{
							"indexed": true,
							"internalType": "address",
							"name": "spender",
							"type": "address"
						},
						{
							"indexed": false,
							"internalType": "uint256",
							"name": "value",
							"type": "uint256"
						}
					],
					"name": "Approval",
					"type": "event"
				},
				{
					"anonymous": false,
					"inputs": [
						{
							"indexed": true,
							"internalType": "address",
							"name": "from",
							"type": "address"
						},
						{
							"indexed": true,
							"internalType": "address",
							"name": "to",
							"type": "address"
						},
						{
							"indexed": false,
							"internalType": "uint256",
							"name": "value",
							"type": "uint256"
						}
					],
					"name": "Transfer",
					"type": "event"
				},
				{
					"constant": true,
					"inputs": [
						{
							"internalType": "address",
							"name": "owner",
							"type": "address"
						},
						{
							"internalType": "address",
							"name": "spender",
							"type": "address"
						}
					],
					"name": "allowance",
					"outputs": [
						{
							"internalType": "uint256",
							"name": "",
							"type": "uint256"
						}
					],
					"payable": false,
					"stateMutability": "view",
					"type": "function"
				},
				{
					"constant": false,
					"inputs": [
						{
							"internalType": "address",
							"name": "spender",
							"type": "address"
						},
						{
							"internalType": "uint256",
							"name": "amount",
							"type": "uint256"
						}
					],
					"name": "approve",
					"outputs": [
						{
							"internalType": "bool",
							"name": "",
							"type": "bool"
						}
					],
					"payable": false,
					"stateMutability": "nonpayable",
					"type": "function"
				},
				{
					"constant": true,
					"inputs": [
						{
							"internalType": "address",
							"name": "account",
							"type": "address"
						}
					],
					"name": "balanceOf",
					"outputs": [
						{
							"internalType": "uint256",
							"name": "",
							"type": "uint256"
						}
					],
					"payable": false,
					"stateMutability": "view",
					"type": "function"
				},
				{
					"constant": false,
					"inputs": [
						{
							"internalType": "address",
							"name": "spender",
							"type": "address"
						},
						{
							"internalType": "uint256",
							"name": "subtractedValue",
							"type": "uint256"
						}
					],
					"name": "decreaseAllowance",
					"outputs": [
						{
							"internalType": "bool",
							"name": "",
							"type": "bool"
						}
					],
					"payable": false,
					"stateMutability": "nonpayable",
					"type": "function"
				},
				{
					"constant": false,
					"inputs": [
						{
							"internalType": "address",
							"name": "spender",
							"type": "address"
						},
						{
							"internalType": "uint256",
							"name": "addedValue",
							"type": "uint256"
						}
					],
					"name": "increaseAllowance",
					"outputs": [
						{
							"internalType": "bool",
							"name": "",
							"type": "bool"
						}
					],
					"payable": false,
					"stateMutability": "nonpayable",
					"type": "function"
				},
				{
					"constant": true,
					"inputs": [],
					"name": "totalSupply",
					"outputs": [
						{
							"internalType": "uint256",
							"name": "",
							"type": "uint256"
						}
					],
					"payable": false,
					"stateMutability": "view",
					"type": "function"
				},
				{
					"constant": false,
					"inputs": [
						{
							"internalType": "address",
							"name": "recipient",
							"type": "address"
						},
						{
							"internalType": "uint256",
							"name": "amount",
							"type": "uint256"
						}
					],
					"name": "transfer",
					"outputs": [
						{
							"internalType": "bool",
							"name": "",
							"type": "bool"
						}
					],
					"payable": false,
					"stateMutability": "nonpayable",
					"type": "function"
				},
				{
					"constant": false,
					"inputs": [
						{
							"internalType": "address",
							"name": "sender",
							"type": "address"
						},
						{
							"internalType": "address",
							"name": "recipient",
							"type": "address"
						},
						{
							"internalType": "uint256",
							"name": "amount",
							"type": "uint256"
						}
					],
					"name": "transferFrom",
					"outputs": [
						{
							"internalType": "bool",
							"name": "",
							"type": "bool"
						}
					],
					"payable": false,
					"stateMutability": "nonpayable",
					"type": "function"
				}
			],
			"devdoc": {
				"details": "Implementation of the {IERC20} interface. * This implementation is agnostic to the way tokens are created. This means that a supply mechanism has to be added in a derived contract using {_mint}. For a generic mechanism see {ERC20Mintable}. * TIP: For a detailed writeup see our guide https://forum.zeppelin.solutions/t/how-to-implement-erc20-supply-mechanisms/226[How to implement supply mechanisms]. * We have followed general OpenZeppelin guidelines: functions revert instead of returning `false` on failure. This behavior is nonetheless conventional and does not conflict with the expectations of ERC20 applications. * Additionally, an {Approval} event is emitted on calls to {transferFrom}. This allows applications to reconstruct the allowance for all accounts just by listening to said events. Other implementations of the EIP may not emit these events, as it isn't required by the specification. * Finally, the non-standard {decreaseAllowance} and {increaseAllowance} functions have been added to mitigate the well-known issues around setting allowances. See {IERC20-approve}.",
				"methods": {
					"allowance(address,address)": {
						"details": "See {IERC20-allowance}."
					},
					"approve(address,uint256)": {
						"details": "See {IERC20-approve}.     * Requirements:     * - `spender` cannot be the zero address."
					},
					"balanceOf(address)": {
						"details": "See {IERC20-balanceOf}."
					},
					"decreaseAllowance(address,uint256)": {
						"details": "Atomically decreases the allowance granted to `spender` by the caller.     * This is an alternative to {approve} that can be used as a mitigation for problems described in {IERC20-approve}.     * Emits an {Approval} event indicating the updated allowance.     * Requirements:     * - `spender` cannot be the zero address. - `spender` must have allowance for the caller of at least `subtractedValue`."
					},
					"increaseAllowance(address,uint256)": {
						"details": "Atomically increases the allowance granted to `spender` by the caller.     * This is an alternative to {approve} that can be used as a mitigation for problems described in {IERC20-approve}.     * Emits an {Approval} event indicating the updated allowance.     * Requirements:     * - `spender` cannot be the zero address."
					},
					"totalSupply()": {
						"details": "See {IERC20-totalSupply}."
					},
					"transfer(address,uint256)": {
						"details": "See {IERC20-transfer}.     * Requirements:     * - `recipient` cannot be the zero address. - the caller must have a balance of at least `amount`."
					},
					"transferFrom(address,address,uint256)": {
						"details": "See {IERC20-transferFrom}.     * Emits an {Approval} event indicating the updated allowance. This is not required by the EIP. See the note at the beginning of {ERC20};     * Requirements: - `sender` and `recipient` cannot be the zero address. - `sender` must have a balance of at least `amount`. - the caller must have allowance for `sender`'s tokens of at least `amount`."
					}
				}
			},
			"evm": {
				"assembly": "    /* \"github/OpenZeppelin/openzeppelin-contracts/contracts/token/ERC20/ERC20.sol\":1268:8091  contract ERC20 is Context, IERC20 {... */\n  mstore(0x40, 0x80)\n  dataSize(sub_0)\n  dup1\n  dataOffset(sub_0)\n  0x00\n  codecopy\n  0x00\n  return\nstop\n\nsub_0: assembly {\n        /* \"github/OpenZeppelin/openzeppelin-contracts/contracts/token/ERC20/ERC20.sol\":1268:8091  contract ERC20 is Context, IERC20 {... */\n      mstore(0x40, 0x80)\n      callvalue\n        /* \"--CODEGEN--\":8:17   */\n      dup1\n        /* \"--CODEGEN--\":5:7   */\n      iszero\n      tag_1\n      jumpi\n        /* \"--CODEGEN--\":30:31   */\n      0x00\n        /* \"--CODEGEN--\":27:28   */\n      dup1\n        /* \"--CODEGEN--\":20:32   */\n      revert\n        /* \"--CODEGEN--\":5:7   */\n    tag_1:\n        /* \"github/OpenZeppelin/openzeppelin-contracts/contracts/token/ERC20/ERC20.sol\":1268:8091  contract ERC20 is Context, IERC20 {... */\n      pop\n      jumpi(tag_2, lt(calldatasize, 0x04))\n      shr(0xe0, calldataload(0x00))\n      dup1\n      0x70a08231\n      gt\n      tag_11\n      jumpi\n      dup1\n      0x70a08231\n      eq\n      tag_7\n      jumpi\n      dup1\n      0xa457c2d7\n      eq\n      tag_8\n      jumpi\n      dup1\n      0xa9059cbb\n      eq\n      tag_9\n      jumpi\n      dup1\n      0xdd62ed3e\n      eq\n      tag_10\n      jumpi\n      jump(tag_2)\n    tag_11:\n      dup1\n      0x095ea7b3\n      eq\n      tag_3\n      jumpi\n      dup1\n      0x18160ddd\n      eq\n      tag_4\n      jumpi\n      dup1\n      0x23b872dd\n      eq\n      tag_5\n      jumpi\n      dup1\n      0x39509351\n      eq\n      tag_6\n      jumpi\n    tag_2:\n      0x00\n      dup1\n      revert\n        /* \"github/OpenZeppelin/openzeppelin-contracts/contracts/token/ERC20/ERC20.sol\":2500:2649  function approve(address spender, uint256 amount) public returns (bool) {... */\n    tag_3:\n      tag_12\n      0x04\n      dup1\n      calldatasize\n      sub\n        /* \"--CODEGEN--\":13:15   */\n      0x40\n        /* \"--CODEGEN--\":8:11   */\n      dup2\n        /* \"--CODEGEN--\":5:16   */\n      lt\n        /* \"--CODEGEN--\":2:4   */\n      iszero\n      tag_13\n      jumpi\n        /* \"--CODEGEN--\":29:30   */\n      0x00\n        /* \"--CODEGEN--\":26:27   */\n      dup1\n        /* \"--CODEGEN--\":19:31   */\n      revert\n        /* \"--CODEGEN--\":2:4   */\n    tag_13:\n      pop\n      sub(shl(0xa0, 0x01), 0x01)\n        /* \"github/OpenZeppelin/openzeppelin-contracts/contracts/token/ERC20/ERC20.sol\":2500:2649  function approve(address spender, uint256 amount) public returns (bool) {... */\n      dup2\n      calldataload\n      and\n      swap1\n      0x20\n      add\n      calldataload\n      tag_14\n      jump\t// in\n    tag_12:\n      0x40\n      dup1\n      mload\n      swap2\n      iszero\n      iszero\n      dup3\n      mstore\n      mload\n      swap1\n      dup2\n      swap1\n      sub\n      0x20\n      add\n      swap1\n      return\n        /* \"github/OpenZeppelin/openzeppelin-contracts/contracts/token/ERC20/ERC20.sol\":1559:1648  function totalSupply() public view returns (uint256) {... */\n    tag_4:\n      tag_15\n      tag_16\n      jump\t// in\n    tag_15:\n      0x40\n      dup1\n      mload\n      swap2\n      dup3\n      mstore\n      mload\n      swap1\n      dup2\n      swap1\n      sub\n      0x20\n      add\n      swap1\n      return\n        /* \"github/OpenZeppelin/openzeppelin-contracts/contracts/token/ERC20/ERC20.sol\":3107:3407  function transferFrom(address sender, address recipient, uint256 amount) public returns (bool) {... */\n    tag_5:\n      tag_12\n      0x04\n      dup1\n      calldatasize\n      sub\n        /* \"--CODEGEN--\":13:15   */\n      0x60\n        /* \"--CODEGEN--\":8:11   */\n      dup2\n        /* \"--CODEGEN--\":5:16   */\n      lt\n        /* \"--CODEGEN--\":2:4   */\n      iszero\n      tag_18\n      jumpi\n        /* \"--CODEGEN--\":29:30   */\n      0x00\n        /* \"--CODEGEN--\":26:27   */\n      dup1\n        /* \"--CODEGEN--\":19:31   */\n      revert\n        /* \"--CODEGEN--\":2:4   */\n    tag_18:\n      pop\n      sub(shl(0xa0, 0x01), 0x01)\n        /* \"github/OpenZeppelin/openzeppelin-contracts/contracts/token/ERC20/ERC20.sol\":3107:3407  function transferFrom(address sender, address recipient, uint256 amount) public returns (bool) {... */\n      dup2\n      calldataload\n      dup2\n      and\n      swap2\n      0x20\n      dup2\n      add\n      calldataload\n      swap1\n      swap2\n      and\n      swap1\n      0x40\n      add\n      calldataload\n      tag_19\n      jump\t// in\n        /* \"github/OpenZeppelin/openzeppelin-contracts/contracts/token/ERC20/ERC20.sol\":3802:4009  function increaseAllowance(address spender, uint256 addedValue) public returns (bool) {... */\n    tag_6:\n      tag_12\n      0x04\n      dup1\n      calldatasize\n      sub\n        /* \"--CODEGEN--\":13:15   */\n      0x40\n        /* \"--CODEGEN--\":8:11   */\n      dup2\n        /* \"--CODEGEN--\":5:16   */\n      lt\n        /* \"--CODEGEN--\":2:4   */\n      iszero\n      tag_21\n      jumpi\n        /* \"--CODEGEN--\":29:30   */\n      0x00\n        /* \"--CODEGEN--\":26:27   */\n      dup1\n        /* \"--CODEGEN--\":19:31   */\n      revert\n        /* \"--CODEGEN--\":2:4   */\n    tag_21:\n      pop\n      sub(shl(0xa0, 0x01), 0x01)\n        /* \"github/OpenZeppelin/openzeppelin-contracts/contracts/token/ERC20/ERC20.sol\":3802:4009  function increaseAllowance(address spender, uint256 addedValue) public returns (bool) {... */\n      dup2\n      calldataload\n      and\n      swap1\n      0x20\n      add\n      calldataload\n      tag_22\n      jump\t// in\n        /* \"github/OpenZeppelin/openzeppelin-contracts/contracts/token/ERC20/ERC20.sol\":1706:1814  function balanceOf(address account) public view returns (uint256) {... */\n    tag_7:\n      tag_15\n      0x04\n      dup1\n      calldatasize\n      sub\n        /* \"--CODEGEN--\":13:15   */\n      0x20\n        /* \"--CODEGEN--\":8:11   */\n      dup2\n        /* \"--CODEGEN--\":5:16   */\n      lt\n        /* \"--CODEGEN--\":2:4   */\n      iszero\n      tag_24\n      jumpi\n        /* \"--CODEGEN--\":29:30   */\n      0x00\n        /* \"--CODEGEN--\":26:27   */\n      dup1\n        /* \"--CODEGEN--\":19:31   */\n      revert\n        /* \"--CODEGEN--\":2:4   */\n    tag_24:\n      pop\n        /* \"github/OpenZeppelin/openzeppelin-contracts/contracts/token/ERC20/ERC20.sol\":1706:1814  function balanceOf(address account) public view returns (uint256) {... */\n      calldataload\n      sub(shl(0xa0, 0x01), 0x01)\n      and\n      tag_25\n      jump\t// in\n        /* \"github/OpenZeppelin/openzeppelin-contracts/contracts/token/ERC20/ERC20.sol\":4496:4754  function decreaseAllowance(address spender, uint256 subtractedValue) public returns (bool) {... */\n    tag_8:\n      tag_12\n      0x04\n      dup1\n      calldatasize\n      sub\n        /* \"--CODEGEN--\":13:15   */\n      0x40\n        /* \"--CODEGEN--\":8:11   */\n      dup2\n        /* \"--CODEGEN--\":5:16   */\n      lt\n        /* \"--CODEGEN--\":2:4   */\n      iszero\n      tag_27\n      jumpi\n        /* \"--CODEGEN--\":29:30   */\n      0x00\n        /* \"--CODEGEN--\":26:27   */\n      dup1\n        /* \"--CODEGEN--\":19:31   */\n      revert\n        /* \"--CODEGEN--\":2:4   */\n    tag_27:\n      pop\n      sub(shl(0xa0, 0x01), 0x01)\n        /* \"github/OpenZeppelin/openzeppelin-contracts/contracts/token/ERC20/ERC20.sol\":4496:4754  function decreaseAllowance(address spender, uint256 subtractedValue) public returns (bool) {... */\n      dup2\n      calldataload\n      and\n      swap1\n      0x20\n      add\n      calldataload\n      tag_28\n      jump\t// in\n        /* \"github/OpenZeppelin/openzeppelin-contracts/contracts/token/ERC20/ERC20.sol\":2017:2172  function transfer(address recipient, uint256 amount) public returns (bool) {... */\n    tag_9:\n      tag_12\n      0x04\n      dup1\n      calldatasize\n      sub\n        /* \"--CODEGEN--\":13:15   */\n      0x40\n        /* \"--CODEGEN--\":8:11   */\n      dup2\n        /* \"--CODEGEN--\":5:16   */\n      lt\n        /* \"--CODEGEN--\":2:4   */\n      iszero\n      tag_30\n      jumpi\n        /* \"--CODEGEN--\":29:30   */\n      0x00\n        /* \"--CODEGEN--\":26:27   */\n      dup1\n        /* \"--CODEGEN--\":19:31   */\n      revert\n        /* \"--CODEGEN--\":2:4   */\n    tag_30:\n      pop\n      sub(shl(0xa0, 0x01), 0x01)\n        /* \"github/OpenZeppelin/openzeppelin-contracts/contracts/token/ERC20/ERC20.sol\":2017:2172  function transfer(address recipient, uint256 amount) public returns (bool) {... */\n      dup2\n      calldataload\n      and\n      swap1\n      0x20\n      add\n      calldataload\n      tag_31\n      jump\t// in\n        /* \"github/OpenZeppelin/openzeppelin-contracts/contracts/token/ERC20/ERC20.sol\":2230:2362  function allowance(address owner, address spender) public view returns (uint256) {... */\n    tag_10:\n      tag_15\n      0x04\n      dup1\n      calldatasize\n      sub\n        /* \"--CODEGEN--\":13:15   */\n      0x40\n        /* \"--CODEGEN--\":8:11   */\n      dup2\n        /* \"--CODEGEN--\":5:16   */\n      lt\n        /* \"--CODEGEN--\":2:4   */\n      iszero\n      tag_33\n      jumpi\n        /* \"--CODEGEN--\":29:30   */\n      0x00\n        /* \"--CODEGEN--\":26:27   */\n      dup1\n        /* \"--CODEGEN--\":19:31   */\n      revert\n        /* \"--CODEGEN--\":2:4   */\n    tag_33:\n      pop\n      sub(shl(0xa0, 0x01), 0x01)\n        /* \"github/OpenZeppelin/openzeppelin-contracts/contracts/token/ERC20/ERC20.sol\":2230:2362  function allowance(address owner, address spender) public view returns (uint256) {... */\n      dup2\n      calldataload\n      dup2\n      and\n      swap2\n      0x20\n      add\n      calldataload\n      and\n      tag_34\n      jump\t// in\n        /* \"github/OpenZeppelin/openzeppelin-contracts/contracts/token/ERC20/ERC20.sol\":2500:2649  function approve(address spender, uint256 amount) public returns (bool) {... */\n    tag_14:\n        /* \"github/OpenZeppelin/openzeppelin-contracts/contracts/token/ERC20/ERC20.sol\":2566:2570  bool */\n      0x00\n        /* \"github/OpenZeppelin/openzeppelin-contracts/contracts/token/ERC20/ERC20.sol\":2582:2621  _approve(_msgSender(), spender, amount) */\n      tag_36\n        /* \"github/OpenZeppelin/openzeppelin-contracts/contracts/token/ERC20/ERC20.sol\":2591:2603  _msgSender() */\n      tag_37\n        /* \"github/OpenZeppelin/openzeppelin-contracts/contracts/token/ERC20/ERC20.sol\":2591:2601  _msgSender */\n      tag_38\n        /* \"github/OpenZeppelin/openzeppelin-contracts/contracts/token/ERC20/ERC20.sol\":2591:2603  _msgSender() */\n      jump\t// in\n    tag_37:\n        /* \"github/OpenZeppelin/openzeppelin-contracts/contracts/token/ERC20/ERC20.sol\":2605:2612  spender */\n      dup5\n        /* \"github/OpenZeppelin/openzeppelin-contracts/contracts/token/ERC20/ERC20.sol\":2614:2620  amount */\n      dup5\n        /* \"github/OpenZeppelin/openzeppelin-contracts/contracts/token/ERC20/ERC20.sol\":2582:2590  _approve */\n      tag_39\n        /* \"github/OpenZeppelin/openzeppelin-contracts/contracts/token/ERC20/ERC20.sol\":2582:2621  _approve(_msgSender(), spender, amount) */\n      jump\t// in\n    tag_36:\n      pop\n        /* \"github/OpenZeppelin/openzeppelin-contracts/contracts/token/ERC20/ERC20.sol\":2638:2642  true */\n      0x01\n        /* \"github/OpenZeppelin/openzeppelin-contracts/contracts/token/ERC20/ERC20.sol\":2500:2649  function approve(address spender, uint256 amount) public returns (bool) {... */\n      swap3\n      swap2\n      pop\n      pop\n      jump\t// out\n        /* \"github/OpenZeppelin/openzeppelin-contracts/contracts/token/ERC20/ERC20.sol\":1559:1648  function totalSupply() public view returns (uint256) {... */\n    tag_16:\n        /* \"github/OpenZeppelin/openzeppelin-contracts/contracts/token/ERC20/ERC20.sol\":1629:1641  _totalSupply */\n      sload(0x02)\n        /* \"github/OpenZeppelin/openzeppelin-contracts/contracts/token/ERC20/ERC20.sol\":1559:1648  function totalSupply() public view returns (uint256) {... */\n      swap1\n      jump\t// out\n        /* \"github/OpenZeppelin/openzeppelin-contracts/contracts/token/ERC20/ERC20.sol\":3107:3407  function transferFrom(address sender, address recipient, uint256 amount) public returns (bool) {... */\n    tag_19:\n        /* \"github/OpenZeppelin/openzeppelin-contracts/contracts/token/ERC20/ERC20.sol\":3196:3200  bool */\n      0x00\n        /* \"github/OpenZeppelin/openzeppelin-contracts/contracts/token/ERC20/ERC20.sol\":3212:3248  _transfer(sender, recipient, amount) */\n      tag_42\n        /* \"github/OpenZeppelin/openzeppelin-contracts/contracts/token/ERC20/ERC20.sol\":3222:3228  sender */\n      dup5\n        /* \"github/OpenZeppelin/openzeppelin-contracts/contracts/token/ERC20/ERC20.sol\":3230:3239  recipient */\n      dup5\n        /* \"github/OpenZeppelin/openzeppelin-contracts/contracts/token/ERC20/ERC20.sol\":3241:3247  amount */\n      dup5\n        /* \"github/OpenZeppelin/openzeppelin-contracts/contracts/token/ERC20/ERC20.sol\":3212:3221  _transfer */\n      tag_43\n        /* \"github/OpenZeppelin/openzeppelin-contracts/contracts/token/ERC20/ERC20.sol\":3212:3248  _transfer(sender, recipient, amount) */\n      jump\t// in\n    tag_42:\n        /* \"github/OpenZeppelin/openzeppelin-contracts/contracts/token/ERC20/ERC20.sol\":3258:3379  _approve(sender, _msgSender(), _allowances[sender][_msgSender()].sub(amount, \"ERC20: transfer amount exceeds allowance\")) */\n      tag_44\n        /* \"github/OpenZeppelin/openzeppelin-contracts/contracts/token/ERC20/ERC20.sol\":3267:3273  sender */\n      dup5\n        /* \"github/OpenZeppelin/openzeppelin-contracts/contracts/token/ERC20/ERC20.sol\":3275:3287  _msgSender() */\n      tag_45\n        /* \"github/OpenZeppelin/openzeppelin-contracts/contracts/token/ERC20/ERC20.sol\":3275:3285  _msgSender */\n      tag_38\n        /* \"github/OpenZeppelin/openzeppelin-contracts/contracts/token/ERC20/ERC20.sol\":3275:3287  _msgSender() */\n      jump\t// in\n    tag_45:\n        /* \"github/OpenZeppelin/openzeppelin-contracts/contracts/token/ERC20/ERC20.sol\":3289:3378  _allowances[sender][_msgSender()].sub(amount, \"ERC20: transfer amount exceeds allowance\") */\n      tag_46\n        /* \"github/OpenZeppelin/openzeppelin-contracts/contracts/token/ERC20/ERC20.sol\":3327:3333  amount */\n      dup6\n        /* \"github/OpenZeppelin/openzeppelin-contracts/contracts/token/ERC20/ERC20.sol\":3289:3378  _allowances[sender][_msgSender()].sub(amount, \"ERC20: transfer amount exceeds allowance\") */\n      mload(0x40)\n      dup1\n      0x60\n      add\n      0x40\n      mstore\n      dup1\n      0x28\n      dup2\n      mstore\n      0x20\n      add\n      data_974d1b4421da69cc60b481194f0dad36a5bb4e23da810da7a7fb30cdba178330\n      0x28\n      swap2\n      codecopy\n      sub(shl(0xa0, 0x01), 0x01)\n        /* \"github/OpenZeppelin/openzeppelin-contracts/contracts/token/ERC20/ERC20.sol\":3289:3308  _allowances[sender] */\n      dup11\n      and\n      0x00\n      swap1\n      dup2\n      mstore\n        /* \"github/OpenZeppelin/openzeppelin-contracts/contracts/token/ERC20/ERC20.sol\":3289:3300  _allowances */\n      0x01\n        /* \"github/OpenZeppelin/openzeppelin-contracts/contracts/token/ERC20/ERC20.sol\":3289:3308  _allowances[sender] */\n      0x20\n      mstore\n      0x40\n      dup2\n      keccak256\n      swap1\n        /* \"github/OpenZeppelin/openzeppelin-contracts/contracts/token/ERC20/ERC20.sol\":3309:3321  _msgSender() */\n      tag_47\n        /* \"github/OpenZeppelin/openzeppelin-contracts/contracts/token/ERC20/ERC20.sol\":3309:3319  _msgSender */\n      tag_38\n        /* \"github/OpenZeppelin/openzeppelin-contracts/contracts/token/ERC20/ERC20.sol\":3309:3321  _msgSender() */\n      jump\t// in\n    tag_47:\n      sub(shl(0xa0, 0x01), 0x01)\n        /* \"github/OpenZeppelin/openzeppelin-contracts/contracts/token/ERC20/ERC20.sol\":3289:3322  _allowances[sender][_msgSender()] */\n      and\n      dup2\n      mstore\n      0x20\n      dup2\n      add\n      swap2\n      swap1\n      swap2\n      mstore\n      0x40\n      add\n      0x00\n      keccak256\n      sload\n      swap2\n        /* \"github/OpenZeppelin/openzeppelin-contracts/contracts/token/ERC20/ERC20.sol\":3289:3378  _allowances[sender][_msgSender()].sub(amount, \"ERC20: transfer amount exceeds allowance\") */\n      swap1\n      0xffffffff\n        /* \"github/OpenZeppelin/openzeppelin-contracts/contracts/token/ERC20/ERC20.sol\":3289:3326  _allowances[sender][_msgSender()].sub */\n      tag_48\n        /* \"github/OpenZeppelin/openzeppelin-contracts/contracts/token/ERC20/ERC20.sol\":3289:3378  _allowances[sender][_msgSender()].sub(amount, \"ERC20: transfer amount exceeds allowance\") */\n      and\n      jump\t// in\n    tag_46:\n        /* \"github/OpenZeppelin/openzeppelin-contracts/contracts/token/ERC20/ERC20.sol\":3258:3266  _approve */\n      tag_39\n        /* \"github/OpenZeppelin/openzeppelin-contracts/contracts/token/ERC20/ERC20.sol\":3258:3379  _approve(sender, _msgSender(), _allowances[sender][_msgSender()].sub(amount, \"ERC20: transfer amount exceeds allowance\")) */\n      jump\t// in\n    tag_44:\n      pop\n        /* \"github/OpenZeppelin/openzeppelin-contracts/contracts/token/ERC20/ERC20.sol\":3396:3400  true */\n      0x01\n        /* \"github/OpenZeppelin/openzeppelin-contracts/contracts/token/ERC20/ERC20.sol\":3107:3407  function transferFrom(address sender, address recipient, uint256 amount) public returns (bool) {... */\n      swap4\n      swap3\n      pop\n      pop\n      pop\n      jump\t// out\n        /* \"github/OpenZeppelin/openzeppelin-contracts/contracts/token/ERC20/ERC20.sol\":3802:4009  function increaseAllowance(address spender, uint256 addedValue) public returns (bool) {... */\n    tag_22:\n        /* \"github/OpenZeppelin/openzeppelin-contracts/contracts/token/ERC20/ERC20.sol\":3882:3886  bool */\n      0x00\n        /* \"github/OpenZeppelin/openzeppelin-contracts/contracts/token/ERC20/ERC20.sol\":3898:3981  _approve(_msgSender(), spender, _allowances[_msgSender()][spender].add(addedValue)) */\n      tag_36\n        /* \"github/OpenZeppelin/openzeppelin-contracts/contracts/token/ERC20/ERC20.sol\":3907:3919  _msgSender() */\n      tag_51\n        /* \"github/OpenZeppelin/openzeppelin-contracts/contracts/token/ERC20/ERC20.sol\":3907:3917  _msgSender */\n      tag_38\n        /* \"github/OpenZeppelin/openzeppelin-contracts/contracts/token/ERC20/ERC20.sol\":3907:3919  _msgSender() */\n      jump\t// in\n    tag_51:\n        /* \"github/OpenZeppelin/openzeppelin-contracts/contracts/token/ERC20/ERC20.sol\":3921:3928  spender */\n      dup5\n        /* \"github/OpenZeppelin/openzeppelin-contracts/contracts/token/ERC20/ERC20.sol\":3930:3980  _allowances[_msgSender()][spender].add(addedValue) */\n      tag_46\n        /* \"github/OpenZeppelin/openzeppelin-contracts/contracts/token/ERC20/ERC20.sol\":3969:3979  addedValue */\n      dup6\n        /* \"github/OpenZeppelin/openzeppelin-contracts/contracts/token/ERC20/ERC20.sol\":3930:3941  _allowances */\n      0x01\n        /* \"github/OpenZeppelin/openzeppelin-contracts/contracts/token/ERC20/ERC20.sol\":3930:3955  _allowances[_msgSender()] */\n      0x00\n        /* \"github/OpenZeppelin/openzeppelin-contracts/contracts/token/ERC20/ERC20.sol\":3942:3954  _msgSender() */\n      tag_53\n        /* \"github/OpenZeppelin/openzeppelin-contracts/contracts/token/ERC20/ERC20.sol\":3942:3952  _msgSender */\n      tag_38\n        /* \"github/OpenZeppelin/openzeppelin-contracts/contracts/token/ERC20/ERC20.sol\":3942:3954  _msgSender() */\n      jump\t// in\n    tag_53:\n      sub(shl(0xa0, 0x01), 0x01)\n        /* \"github/OpenZeppelin/openzeppelin-contracts/contracts/token/ERC20/ERC20.sol\":3930:3955  _allowances[_msgSender()] */\n      swap1\n      dup2\n      and\n      dup3\n      mstore\n      0x20\n      dup1\n      dup4\n      add\n      swap4\n      swap1\n      swap4\n      mstore\n      0x40\n      swap2\n      dup3\n      add\n      0x00\n      swap1\n      dup2\n      keccak256\n        /* \"github/OpenZeppelin/openzeppelin-contracts/contracts/token/ERC20/ERC20.sol\":3930:3964  _allowances[_msgSender()][spender] */\n      swap2\n      dup13\n      and\n      dup2\n      mstore\n      swap3\n      mstore\n      swap1\n      keccak256\n      sload\n      swap1\n        /* \"github/OpenZeppelin/openzeppelin-contracts/contracts/token/ERC20/ERC20.sol\":3930:3980  _allowances[_msgSender()][spender].add(addedValue) */\n      0xffffffff\n        /* \"github/OpenZeppelin/openzeppelin-contracts/contracts/token/ERC20/ERC20.sol\":3930:3968  _allowances[_msgSender()][spender].add */\n      tag_54\n        /* \"github/OpenZeppelin/openzeppelin-contracts/contracts/token/ERC20/ERC20.sol\":3930:3980  _allowances[_msgSender()][spender].add(addedValue) */\n      and\n      jump\t// in\n        /* \"github/OpenZeppelin/openzeppelin-contracts/contracts/token/ERC20/ERC20.sol\":1706:1814  function balanceOf(address account) public view returns (uint256) {... */\n    tag_25:\n      sub(shl(0xa0, 0x01), 0x01)\n        /* \"github/OpenZeppelin/openzeppelin-contracts/contracts/token/ERC20/ERC20.sol\":1789:1807  _balances[account] */\n      and\n        /* \"github/OpenZeppelin/openzeppelin-contracts/contracts/token/ERC20/ERC20.sol\":1763:1770  uint256 */\n      0x00\n        /* \"github/OpenZeppelin/openzeppelin-contracts/contracts/token/ERC20/ERC20.sol\":1789:1807  _balances[account] */\n      swap1\n      dup2\n      mstore\n      0x20\n      dup2\n      swap1\n      mstore\n      0x40\n      swap1\n      keccak256\n      sload\n      swap1\n        /* \"github/OpenZeppelin/openzeppelin-contracts/contracts/token/ERC20/ERC20.sol\":1706:1814  function balanceOf(address account) public view returns (uint256) {... */\n      jump\t// out\n        /* \"github/OpenZeppelin/openzeppelin-contracts/contracts/token/ERC20/ERC20.sol\":4496:4754  function decreaseAllowance(address spender, uint256 subtractedValue) public returns (bool) {... */\n    tag_28:\n        /* \"github/OpenZeppelin/openzeppelin-contracts/contracts/token/ERC20/ERC20.sol\":4581:4585  bool */\n      0x00\n        /* \"github/OpenZeppelin/openzeppelin-contracts/contracts/token/ERC20/ERC20.sol\":4597:4726  _approve(_msgSender(), spender, _allowances[_msgSender()][spender].sub(subtractedValue, \"ERC20: decreased allowance below zero\")) */\n      tag_36\n        /* \"github/OpenZeppelin/openzeppelin-contracts/contracts/token/ERC20/ERC20.sol\":4606:4618  _msgSender() */\n      tag_58\n        /* \"github/OpenZeppelin/openzeppelin-contracts/contracts/token/ERC20/ERC20.sol\":4606:4616  _msgSender */\n      tag_38\n        /* \"github/OpenZeppelin/openzeppelin-contracts/contracts/token/ERC20/ERC20.sol\":4606:4618  _msgSender() */\n      jump\t// in\n    tag_58:\n        /* \"github/OpenZeppelin/openzeppelin-contracts/contracts/token/ERC20/ERC20.sol\":4620:4627  spender */\n      dup5\n        /* \"github/OpenZeppelin/openzeppelin-contracts/contracts/token/ERC20/ERC20.sol\":4629:4725  _allowances[_msgSender()][spender].sub(subtractedValue, \"ERC20: decreased allowance below zero\") */\n      tag_46\n        /* \"github/OpenZeppelin/openzeppelin-contracts/contracts/token/ERC20/ERC20.sol\":4668:4683  subtractedValue */\n      dup6\n        /* \"github/OpenZeppelin/openzeppelin-contracts/contracts/token/ERC20/ERC20.sol\":4629:4725  _allowances[_msgSender()][spender].sub(subtractedValue, \"ERC20: decreased allowance below zero\") */\n      mload(0x40)\n      dup1\n      0x60\n      add\n      0x40\n      mstore\n      dup1\n      0x25\n      dup2\n      mstore\n      0x20\n      add\n      data_f8b476f7d28209d77d4a4ac1fe36b9f8259aa1bb6bddfa6e89de7e51615cf8a8\n      0x25\n      swap2\n      codecopy\n        /* \"github/OpenZeppelin/openzeppelin-contracts/contracts/token/ERC20/ERC20.sol\":4629:4640  _allowances */\n      0x01\n        /* \"github/OpenZeppelin/openzeppelin-contracts/contracts/token/ERC20/ERC20.sol\":4629:4654  _allowances[_msgSender()] */\n      0x00\n        /* \"github/OpenZeppelin/openzeppelin-contracts/contracts/token/ERC20/ERC20.sol\":4641:4653  _msgSender() */\n      tag_60\n        /* \"github/OpenZeppelin/openzeppelin-contracts/contracts/token/ERC20/ERC20.sol\":4641:4651  _msgSender */\n      tag_38\n        /* \"github/OpenZeppelin/openzeppelin-contracts/contracts/token/ERC20/ERC20.sol\":4641:4653  _msgSender() */\n      jump\t// in\n    tag_60:\n      sub(shl(0xa0, 0x01), 0x01)\n        /* \"github/OpenZeppelin/openzeppelin-contracts/contracts/token/ERC20/ERC20.sol\":4629:4654  _allowances[_msgSender()] */\n      swap1\n      dup2\n      and\n      dup3\n      mstore\n      0x20\n      dup1\n      dup4\n      add\n      swap4\n      swap1\n      swap4\n      mstore\n      0x40\n      swap2\n      dup3\n      add\n      0x00\n      swap1\n      dup2\n      keccak256\n        /* \"github/OpenZeppelin/openzeppelin-contracts/contracts/token/ERC20/ERC20.sol\":4629:4663  _allowances[_msgSender()][spender] */\n      swap2\n      dup14\n      and\n      dup2\n      mstore\n      swap3\n      mstore\n      swap1\n      keccak256\n      sload\n      swap2\n        /* \"github/OpenZeppelin/openzeppelin-contracts/contracts/token/ERC20/ERC20.sol\":4629:4725  _allowances[_msgSender()][spender].sub(subtractedValue, \"ERC20: decreased allowance below zero\") */\n      swap1\n      0xffffffff\n        /* \"github/OpenZeppelin/openzeppelin-contracts/contracts/token/ERC20/ERC20.sol\":4629:4667  _allowances[_msgSender()][spender].sub */\n      tag_48\n        /* \"github/OpenZeppelin/openzeppelin-contracts/contracts/token/ERC20/ERC20.sol\":4629:4725  _allowances[_msgSender()][spender].sub(subtractedValue, \"ERC20: decreased allowance below zero\") */\n      and\n      jump\t// in\n        /* \"github/OpenZeppelin/openzeppelin-contracts/contracts/token/ERC20/ERC20.sol\":2017:2172  function transfer(address recipient, uint256 amount) public returns (bool) {... */\n    tag_31:\n        /* \"github/OpenZeppelin/openzeppelin-contracts/contracts/token/ERC20/ERC20.sol\":2086:2090  bool */\n      0x00\n        /* \"github/OpenZeppelin/openzeppelin-contracts/contracts/token/ERC20/ERC20.sol\":2102:2144  _transfer(_msgSender(), recipient, amount) */\n      tag_36\n        /* \"github/OpenZeppelin/openzeppelin-contracts/contracts/token/ERC20/ERC20.sol\":2112:2124  _msgSender() */\n      tag_63\n        /* \"github/OpenZeppelin/openzeppelin-contracts/contracts/token/ERC20/ERC20.sol\":2112:2122  _msgSender */\n      tag_38\n        /* \"github/OpenZeppelin/openzeppelin-contracts/contracts/token/ERC20/ERC20.sol\":2112:2124  _msgSender() */\n      jump\t// in\n    tag_63:\n        /* \"github/OpenZeppelin/openzeppelin-contracts/contracts/token/ERC20/ERC20.sol\":2126:2135  recipient */\n      dup5\n        /* \"github/OpenZeppelin/openzeppelin-contracts/contracts/token/ERC20/ERC20.sol\":2137:2143  amount */\n      dup5\n        /* \"github/OpenZeppelin/openzeppelin-contracts/contracts/token/ERC20/ERC20.sol\":2102:2111  _transfer */\n      tag_43\n        /* \"github/OpenZeppelin/openzeppelin-contracts/contracts/token/ERC20/ERC20.sol\":2102:2144  _transfer(_msgSender(), recipient, amount) */\n      jump\t// in\n        /* \"github/OpenZeppelin/openzeppelin-contracts/contracts/token/ERC20/ERC20.sol\":2230:2362  function allowance(address owner, address spender) public view returns (uint256) {... */\n    tag_34:\n      sub(shl(0xa0, 0x01), 0x01)\n        /* \"github/OpenZeppelin/openzeppelin-contracts/contracts/token/ERC20/ERC20.sol\":2328:2346  _allowances[owner] */\n      swap2\n      dup3\n      and\n        /* \"github/OpenZeppelin/openzeppelin-contracts/contracts/token/ERC20/ERC20.sol\":2302:2309  uint256 */\n      0x00\n        /* \"github/OpenZeppelin/openzeppelin-contracts/contracts/token/ERC20/ERC20.sol\":2328:2346  _allowances[owner] */\n      swap1\n      dup2\n      mstore\n        /* \"github/OpenZeppelin/openzeppelin-contracts/contracts/token/ERC20/ERC20.sol\":2328:2339  _allowances */\n      0x01\n        /* \"github/OpenZeppelin/openzeppelin-contracts/contracts/token/ERC20/ERC20.sol\":2328:2346  _allowances[owner] */\n      0x20\n      swap1\n      dup2\n      mstore\n      0x40\n      dup1\n      dup4\n      keccak256\n        /* \"github/OpenZeppelin/openzeppelin-contracts/contracts/token/ERC20/ERC20.sol\":2328:2355  _allowances[owner][spender] */\n      swap4\n      swap1\n      swap5\n      and\n      dup3\n      mstore\n      swap2\n      swap1\n      swap2\n      mstore\n      keccak256\n      sload\n      swap1\n        /* \"github/OpenZeppelin/openzeppelin-contracts/contracts/token/ERC20/ERC20.sol\":2230:2362  function allowance(address owner, address spender) public view returns (uint256) {... */\n      jump\t// out\n        /* \"github/OpenZeppelin/openzeppelin-contracts/contracts/GSN/Context.sol\":788:884  function _msgSender() internal view returns (address payable) {... */\n    tag_38:\n        /* \"github/OpenZeppelin/openzeppelin-contracts/contracts/GSN/Context.sol\":867:877  msg.sender */\n      caller\n        /* \"github/OpenZeppelin/openzeppelin-contracts/contracts/GSN/Context.sol\":788:884  function _msgSender() internal view returns (address payable) {... */\n      swap1\n      jump\t// out\n        /* \"github/OpenZeppelin/openzeppelin-contracts/contracts/token/ERC20/ERC20.sol\":7350:7682  function _approve(address owner, address spender, uint256 amount) internal {... */\n    tag_39:\n      sub(shl(0xa0, 0x01), 0x01)\n        /* \"github/OpenZeppelin/openzeppelin-contracts/contracts/token/ERC20/ERC20.sol\":7443:7462  owner != address(0) */\n      dup4\n      and\n        /* \"github/OpenZeppelin/openzeppelin-contracts/contracts/token/ERC20/ERC20.sol\":7435:7503  require(owner != address(0), \"ERC20: approve from the zero address\") */\n      tag_67\n      jumpi\n      mload(0x40)\n      shl(0xe5, 0x461bcd)\n      dup2\n      mstore\n      0x04\n      add\n      dup1\n      dup1\n      0x20\n      add\n      dup3\n      dup2\n      sub\n      dup3\n      mstore\n      0x24\n      dup2\n      mstore\n      0x20\n      add\n      dup1\n      data_c953f4879035ed60e766b34720f656aab5c697b141d924c283124ecedb91c208\n      0x24\n      swap2\n      codecopy\n      0x40\n      add\n      swap2\n      pop\n      pop\n      mload(0x40)\n      dup1\n      swap2\n      sub\n      swap1\n      revert\n    tag_67:\n      sub(shl(0xa0, 0x01), 0x01)\n        /* \"github/OpenZeppelin/openzeppelin-contracts/contracts/token/ERC20/ERC20.sol\":7521:7542  spender != address(0) */\n      dup3\n      and\n        /* \"github/OpenZeppelin/openzeppelin-contracts/contracts/token/ERC20/ERC20.sol\":7513:7581  require(spender != address(0), \"ERC20: approve to the zero address\") */\n      tag_68\n      jumpi\n      mload(0x40)\n      shl(0xe5, 0x461bcd)\n      dup2\n      mstore\n      0x04\n      add\n      dup1\n      dup1\n      0x20\n      add\n      dup3\n      dup2\n      sub\n      dup3\n      mstore\n      0x22\n      dup2\n      mstore\n      0x20\n      add\n      dup1\n      data_24883cc5fe64ace9d0df1893501ecb93c77180f0ff69cca79affb3c316dc8029\n      0x22\n      swap2\n      codecopy\n      0x40\n      add\n      swap2\n      pop\n      pop\n      mload(0x40)\n      dup1\n      swap2\n      sub\n      swap1\n      revert\n    tag_68:\n      sub(shl(0xa0, 0x01), 0x01)\n        /* \"github/OpenZeppelin/openzeppelin-contracts/contracts/token/ERC20/ERC20.sol\":7592:7610  _allowances[owner] */\n      dup1\n      dup5\n      and\n      0x00\n      dup2\n      dup2\n      mstore\n        /* \"github/OpenZeppelin/openzeppelin-contracts/contracts/token/ERC20/ERC20.sol\":7592:7603  _allowances */\n      0x01\n        /* \"github/OpenZeppelin/openzeppelin-contracts/contracts/token/ERC20/ERC20.sol\":7592:7610  _allowances[owner] */\n      0x20\n      swap1\n      dup2\n      mstore\n      0x40\n      dup1\n      dup4\n      keccak256\n        /* \"github/OpenZeppelin/openzeppelin-contracts/contracts/token/ERC20/ERC20.sol\":7592:7619  _allowances[owner][spender] */\n      swap5\n      dup8\n      and\n      dup1\n      dup5\n      mstore\n      swap5\n      dup3\n      mstore\n      swap2\n      dup3\n      swap1\n      keccak256\n        /* \"github/OpenZeppelin/openzeppelin-contracts/contracts/token/ERC20/ERC20.sol\":7592:7628  _allowances[owner][spender] = amount */\n      dup6\n      swap1\n      sstore\n        /* \"github/OpenZeppelin/openzeppelin-contracts/contracts/token/ERC20/ERC20.sol\":7643:7675  Approval(owner, spender, amount) */\n      dup2\n      mload\n      dup6\n      dup2\n      mstore\n      swap2\n      mload\n      0x8c5be1e5ebec7d5bd14f71427d1e84f3dd0314c0f7b2291e5b200ac8c7c3b925\n      swap3\n      dup2\n      swap1\n      sub\n      swap1\n      swap2\n      add\n      swap1\n      log3\n        /* \"github/OpenZeppelin/openzeppelin-contracts/contracts/token/ERC20/ERC20.sol\":7350:7682  function _approve(address owner, address spender, uint256 amount) internal {... */\n      pop\n      pop\n      pop\n      jump\t// out\n        /* \"github/OpenZeppelin/openzeppelin-contracts/contracts/token/ERC20/ERC20.sol\":5228:5692  function _transfer(address sender, address recipient, uint256 amount) internal {... */\n    tag_43:\n      sub(shl(0xa0, 0x01), 0x01)\n        /* \"github/OpenZeppelin/openzeppelin-contracts/contracts/token/ERC20/ERC20.sol\":5325:5345  sender != address(0) */\n      dup4\n      and\n        /* \"github/OpenZeppelin/openzeppelin-contracts/contracts/token/ERC20/ERC20.sol\":5317:5387  require(sender != address(0), \"ERC20: transfer from the zero address\") */\n      tag_70\n      jumpi\n      mload(0x40)\n      shl(0xe5, 0x461bcd)\n      dup2\n      mstore\n      0x04\n      add\n      dup1\n      dup1\n      0x20\n      add\n      dup3\n      dup2\n      sub\n      dup3\n      mstore\n      0x25\n      dup2\n      mstore\n      0x20\n      add\n      dup1\n      data_baecc556b46f4ed0f2b4cb599d60785ac8563dd2dc0a5bf12edea1c39e5e1fea\n      0x25\n      swap2\n      codecopy\n      0x40\n      add\n      swap2\n      pop\n      pop\n      mload(0x40)\n      dup1\n      swap2\n      sub\n      swap1\n      revert\n    tag_70:\n      sub(shl(0xa0, 0x01), 0x01)\n        /* \"github/OpenZeppelin/openzeppelin-contracts/contracts/token/ERC20/ERC20.sol\":5405:5428  recipient != address(0) */\n      dup3\n      and\n        /* \"github/OpenZeppelin/openzeppelin-contracts/contracts/token/ERC20/ERC20.sol\":5397:5468  require(recipient != address(0), \"ERC20: transfer to the zero address\") */\n      tag_71\n      jumpi\n      mload(0x40)\n      shl(0xe5, 0x461bcd)\n      dup2\n      mstore\n      0x04\n      add\n      dup1\n      dup1\n      0x20\n      add\n      dup3\n      dup2\n      sub\n      dup3\n      mstore\n      0x23\n      dup2\n      mstore\n      0x20\n      add\n      dup1\n      data_0557e210f7a69a685100a7e4e3d0a7024c546085cee28910fd17d0b081d9516f\n      0x23\n      swap2\n      codecopy\n      0x40\n      add\n      swap2\n      pop\n      pop\n      mload(0x40)\n      dup1\n      swap2\n      sub\n      swap1\n      revert\n    tag_71:\n        /* \"github/OpenZeppelin/openzeppelin-contracts/contracts/token/ERC20/ERC20.sol\":5499:5570  _balances[sender].sub(amount, \"ERC20: transfer amount exceeds balance\") */\n      tag_72\n        /* \"github/OpenZeppelin/openzeppelin-contracts/contracts/token/ERC20/ERC20.sol\":5521:5527  amount */\n      dup2\n        /* \"github/OpenZeppelin/openzeppelin-contracts/contracts/token/ERC20/ERC20.sol\":5499:5570  _balances[sender].sub(amount, \"ERC20: transfer amount exceeds balance\") */\n      mload(0x40)\n      dup1\n      0x60\n      add\n      0x40\n      mstore\n      dup1\n      0x26\n      dup2\n      mstore\n      0x20\n      add\n      data_4107e8a8b9e94bf8ff83080ddec1c0bffe897ebc2241b89d44f66b3d274088b6\n      0x26\n      swap2\n      codecopy\n      sub(shl(0xa0, 0x01), 0x01)\n        /* \"github/OpenZeppelin/openzeppelin-contracts/contracts/token/ERC20/ERC20.sol\":5499:5516  _balances[sender] */\n      dup7\n      and\n        /* \"github/OpenZeppelin/openzeppelin-contracts/contracts/token/ERC20/ERC20.sol\":5499:5508  _balances */\n      0x00\n        /* \"github/OpenZeppelin/openzeppelin-contracts/contracts/token/ERC20/ERC20.sol\":5499:5516  _balances[sender] */\n      swap1\n      dup2\n      mstore\n      0x20\n      dup2\n      swap1\n      mstore\n      0x40\n      swap1\n      keccak256\n      sload\n      swap2\n        /* \"github/OpenZeppelin/openzeppelin-contracts/contracts/token/ERC20/ERC20.sol\":5499:5570  _balances[sender].sub(amount, \"ERC20: transfer amount exceeds balance\") */\n      swap1\n      0xffffffff\n        /* \"github/OpenZeppelin/openzeppelin-contracts/contracts/token/ERC20/ERC20.sol\":5499:5520  _balances[sender].sub */\n      tag_48\n        /* \"github/OpenZeppelin/openzeppelin-contracts/contracts/token/ERC20/ERC20.sol\":5499:5570  _balances[sender].sub(amount, \"ERC20: transfer amount exceeds balance\") */\n      and\n      jump\t// in\n    tag_72:\n      sub(shl(0xa0, 0x01), 0x01)\n        /* \"github/OpenZeppelin/openzeppelin-contracts/contracts/token/ERC20/ERC20.sol\":5479:5496  _balances[sender] */\n      dup1\n      dup6\n      and\n        /* \"github/OpenZeppelin/openzeppelin-contracts/contracts/token/ERC20/ERC20.sol\":5479:5488  _balances */\n      0x00\n        /* \"github/OpenZeppelin/openzeppelin-contracts/contracts/token/ERC20/ERC20.sol\":5479:5496  _balances[sender] */\n      swap1\n      dup2\n      mstore\n      0x20\n      dup2\n      swap1\n      mstore\n      0x40\n      dup1\n      dup3\n      keccak256\n        /* \"github/OpenZeppelin/openzeppelin-contracts/contracts/token/ERC20/ERC20.sol\":5479:5570  _balances[sender] = _balances[sender].sub(amount, \"ERC20: transfer amount exceeds balance\") */\n      swap4\n      swap1\n      swap4\n      sstore\n        /* \"github/OpenZeppelin/openzeppelin-contracts/contracts/token/ERC20/ERC20.sol\":5603:5623  _balances[recipient] */\n      swap1\n      dup5\n      and\n      dup2\n      mstore\n      keccak256\n      sload\n        /* \"github/OpenZeppelin/openzeppelin-contracts/contracts/token/ERC20/ERC20.sol\":5603:5635  _balances[recipient].add(amount) */\n      tag_73\n      swap1\n        /* \"github/OpenZeppelin/openzeppelin-contracts/contracts/token/ERC20/ERC20.sol\":5628:5634  amount */\n      dup3\n        /* \"github/OpenZeppelin/openzeppelin-contracts/contracts/token/ERC20/ERC20.sol\":5603:5635  _balances[recipient].add(amount) */\n      0xffffffff\n        /* \"github/OpenZeppelin/openzeppelin-contracts/contracts/token/ERC20/ERC20.sol\":5603:5627  _balances[recipient].add */\n      tag_54\n        /* \"github/OpenZeppelin/openzeppelin-contracts/contracts/token/ERC20/ERC20.sol\":5603:5635  _balances[recipient].add(amount) */\n      and\n      jump\t// in\n    tag_73:\n      sub(shl(0xa0, 0x01), 0x01)\n        /* \"github/OpenZeppelin/openzeppelin-contracts/contracts/token/ERC20/ERC20.sol\":5580:5600  _balances[recipient] */\n      dup1\n      dup5\n      and\n        /* \"github/OpenZeppelin/openzeppelin-contracts/contracts/token/ERC20/ERC20.sol\":5580:5589  _balances */\n      0x00\n        /* \"github/OpenZeppelin/openzeppelin-contracts/contracts/token/ERC20/ERC20.sol\":5580:5600  _balances[recipient] */\n      dup2\n      dup2\n      mstore\n      0x20\n      dup2\n      dup2\n      mstore\n      0x40\n      swap2\n      dup3\n      swap1\n      keccak256\n        /* \"github/OpenZeppelin/openzeppelin-contracts/contracts/token/ERC20/ERC20.sol\":5580:5635  _balances[recipient] = _balances[recipient].add(amount) */\n      swap5\n      swap1\n      swap5\n      sstore\n        /* \"github/OpenZeppelin/openzeppelin-contracts/contracts/token/ERC20/ERC20.sol\":5650:5685  Transfer(sender, recipient, amount) */\n      dup1\n      mload\n      dup6\n      dup2\n      mstore\n      swap1\n      mload\n        /* \"github/OpenZeppelin/openzeppelin-contracts/contracts/token/ERC20/ERC20.sol\":5580:5600  _balances[recipient] */\n      swap2\n      swap4\n        /* \"github/OpenZeppelin/openzeppelin-contracts/contracts/token/ERC20/ERC20.sol\":5650:5685  Transfer(sender, recipient, amount) */\n      swap3\n      dup8\n      and\n      swap3\n      0xddf252ad1be2c89b69c2b068fc378daa952ba7f163c4a11628f55a4df523b3ef\n      swap3\n      swap2\n      dup3\n      swap1\n      sub\n      add\n      swap1\n      log3\n        /* \"github/OpenZeppelin/openzeppelin-contracts/contracts/token/ERC20/ERC20.sol\":5228:5692  function _transfer(address sender, address recipient, uint256 amount) internal {... */\n      pop\n      pop\n      pop\n      jump\t// out\n        /* \"github/OpenZeppelin/openzeppelin-contracts/contracts/math/SafeMath.sol\":1732:1919  function sub(uint256 a, uint256 b, string memory errorMessage) internal pure returns (uint256) {... */\n    tag_48:\n        /* \"github/OpenZeppelin/openzeppelin-contracts/contracts/math/SafeMath.sol\":1818:1825  uint256 */\n      0x00\n        /* \"github/OpenZeppelin/openzeppelin-contracts/contracts/math/SafeMath.sol\":1853:1865  errorMessage */\n      dup2\n        /* \"github/OpenZeppelin/openzeppelin-contracts/contracts/math/SafeMath.sol\":1845:1851  b <= a */\n      dup5\n      dup5\n      gt\n      iszero\n        /* \"github/OpenZeppelin/openzeppelin-contracts/contracts/math/SafeMath.sol\":1837:1866  require(b <= a, errorMessage) */\n      tag_75\n      jumpi\n      mload(0x40)\n      shl(0xe5, 0x461bcd)\n      dup2\n      mstore\n      0x04\n      add\n      dup1\n      dup1\n      0x20\n      add\n      dup3\n      dup2\n      sub\n      dup3\n      mstore\n      dup4\n      dup2\n      dup2\n      mload\n      dup2\n      mstore\n      0x20\n      add\n      swap2\n      pop\n      dup1\n      mload\n      swap1\n      0x20\n      add\n      swap1\n      dup1\n      dup4\n      dup4\n        /* \"--CODEGEN--\":23:24   */\n      0x00\n        /* \"--CODEGEN--\":8:108   */\n    tag_76:\n        /* \"--CODEGEN--\":33:36   */\n      dup4\n        /* \"--CODEGEN--\":30:31   */\n      dup2\n        /* \"--CODEGEN--\":27:37   */\n      lt\n        /* \"--CODEGEN--\":8:108   */\n      iszero\n      tag_78\n      jumpi\n        /* \"--CODEGEN--\":90:101   */\n      dup2\n      dup2\n      add\n        /* \"--CODEGEN--\":84:102   */\n      mload\n        /* \"--CODEGEN--\":71:82   */\n      dup4\n      dup3\n      add\n        /* \"--CODEGEN--\":64:103   */\n      mstore\n        /* \"--CODEGEN--\":52:54   */\n      0x20\n        /* \"--CODEGEN--\":45:55   */\n      add\n        /* \"--CODEGEN--\":8:108   */\n      jump(tag_76)\n    tag_78:\n        /* \"--CODEGEN--\":12:26   */\n      pop\n        /* \"github/OpenZeppelin/openzeppelin-contracts/contracts/math/SafeMath.sol\":1837:1866  require(b <= a, errorMessage) */\n      pop\n      pop\n      pop\n      swap1\n      pop\n      swap1\n      dup2\n      add\n      swap1\n      0x1f\n      and\n      dup1\n      iszero\n      tag_79\n      jumpi\n      dup1\n      dup3\n      sub\n      dup1\n      mload\n      0x01\n      dup4\n      0x20\n      sub\n      0x0100\n      exp\n      sub\n      not\n      and\n      dup2\n      mstore\n      0x20\n      add\n      swap2\n      pop\n    tag_79:\n      pop\n      swap3\n      pop\n      pop\n      pop\n      mload(0x40)\n      dup1\n      swap2\n      sub\n      swap1\n      revert\n    tag_75:\n      pop\n      pop\n      pop\n        /* \"github/OpenZeppelin/openzeppelin-contracts/contracts/math/SafeMath.sol\":1888:1893  a - b */\n      swap1\n      sub\n      swap1\n        /* \"github/OpenZeppelin/openzeppelin-contracts/contracts/math/SafeMath.sol\":1732:1919  function sub(uint256 a, uint256 b, string memory errorMessage) internal pure returns (uint256) {... */\n      jump\t// out\n        /* \"github/OpenZeppelin/openzeppelin-contracts/contracts/math/SafeMath.sol\":834:1010  function add(uint256 a, uint256 b) internal pure returns (uint256) {... */\n    tag_54:\n        /* \"github/OpenZeppelin/openzeppelin-contracts/contracts/math/SafeMath.sol\":892:899  uint256 */\n      0x00\n        /* \"github/OpenZeppelin/openzeppelin-contracts/contracts/math/SafeMath.sol\":923:928  a + b */\n      dup3\n      dup3\n      add\n        /* \"github/OpenZeppelin/openzeppelin-contracts/contracts/math/SafeMath.sol\":946:952  c >= a */\n      dup4\n      dup2\n      lt\n      iszero\n        /* \"github/OpenZeppelin/openzeppelin-contracts/contracts/math/SafeMath.sol\":938:984  require(c >= a, \"SafeMath: addition overflow\") */\n      tag_81\n      jumpi\n      0x40\n      dup1\n      mload\n      shl(0xe5, 0x461bcd)\n      dup2\n      mstore\n      0x20\n      0x04\n      dup3\n      add\n      mstore\n      0x1b\n      0x24\n      dup3\n      add\n      mstore\n      0x536166654d6174683a206164646974696f6e206f766572666c6f770000000000\n      0x44\n      dup3\n      add\n      mstore\n      swap1\n      mload\n      swap1\n      dup2\n      swap1\n      sub\n      0x64\n      add\n      swap1\n      revert\n    tag_81:\n        /* \"github/OpenZeppelin/openzeppelin-contracts/contracts/math/SafeMath.sol\":1002:1003  c */\n      swap4\n        /* \"github/OpenZeppelin/openzeppelin-contracts/contracts/math/SafeMath.sol\":834:1010  function add(uint256 a, uint256 b) internal pure returns (uint256) {... */\n      swap3\n      pop\n      pop\n      pop\n      jump\t// out\n    stop\n    data_0557e210f7a69a685100a7e4e3d0a7024c546085cee28910fd17d0b081d9516f 45524332303a207472616e7366657220746f20746865207a65726f2061646472657373\n    data_24883cc5fe64ace9d0df1893501ecb93c77180f0ff69cca79affb3c316dc8029 45524332303a20617070726f766520746f20746865207a65726f2061646472657373\n    data_4107e8a8b9e94bf8ff83080ddec1c0bffe897ebc2241b89d44f66b3d274088b6 45524332303a207472616e7366657220616d6f756e7420657863656564732062616c616e6365\n    data_974d1b4421da69cc60b481194f0dad36a5bb4e23da810da7a7fb30cdba178330 45524332303a207472616e7366657220616d6f756e74206578636565647320616c6c6f77616e6365\n    data_baecc556b46f4ed0f2b4cb599d60785ac8563dd2dc0a5bf12edea1c39e5e1fea 45524332303a207472616e736665722066726f6d20746865207a65726f2061646472657373\n    data_c953f4879035ed60e766b34720f656aab5c697b141d924c283124ecedb91c208 45524332303a20617070726f76652066726f6d20746865207a65726f2061646472657373\n    data_f8b476f7d28209d77d4a4ac1fe36b9f8259aa1bb6bddfa6e89de7e51615cf8a8 45524332303a2064656372656173656420616c6c6f77616e63652062656c6f77207a65726f\n\n    auxdata: 0xa265627a7a7231582004fbb9b14f7d3a1678bac01004a476df447ca833cb7426d631b12c404edeb1fd64736f6c63430005110032\n}\n",
				"bytecode": {
					"linkReferences": {},
					"object": "608060405261083b806100136000396000f3fe608060405234801561001057600080fd5b50600436106100885760003560e01c806370a082311161005b57806370a0823114610149578063a457c2d71461016f578063a9059cbb1461019b578063dd62ed3e146101c757610088565b8063095ea7b31461008d57806318160ddd146100cd57806323b872dd146100e7578063395093511461011d575b600080fd5b6100b9600480360360408110156100a357600080fd5b506001600160a01b0381351690602001356101f5565b604080519115158252519081900360200190f35b6100d5610212565b60408051918252519081900360200190f35b6100b9600480360360608110156100fd57600080fd5b506001600160a01b03813581169160208101359091169060400135610218565b6100b96004803603604081101561013357600080fd5b506001600160a01b0381351690602001356102a5565b6100d56004803603602081101561015f57600080fd5b50356001600160a01b03166102f9565b6100b96004803603604081101561018557600080fd5b506001600160a01b038135169060200135610314565b6100b9600480360360408110156101b157600080fd5b506001600160a01b038135169060200135610382565b6100d5600480360360408110156101dd57600080fd5b506001600160a01b0381358116916020013516610396565b60006102096102026103c1565b84846103c5565b50600192915050565b60025490565b60006102258484846104b1565b61029b846102316103c1565b61029685604051806060016040528060288152602001610771602891396001600160a01b038a1660009081526001602052604081209061026f6103c1565b6001600160a01b03168152602081019190915260400160002054919063ffffffff61060d16565b6103c5565b5060019392505050565b60006102096102b26103c1565b8461029685600160006102c36103c1565b6001600160a01b03908116825260208083019390935260409182016000908120918c16815292529020549063ffffffff6106a416565b6001600160a01b031660009081526020819052604090205490565b60006102096103216103c1565b84610296856040518060600160405280602581526020016107e2602591396001600061034b6103c1565b6001600160a01b03908116825260208083019390935260409182016000908120918d1681529252902054919063ffffffff61060d16565b600061020961038f6103c1565b84846104b1565b6001600160a01b03918216600090815260016020908152604080832093909416825291909152205490565b3390565b6001600160a01b03831661040a5760405162461bcd60e51b81526004018080602001828103825260248152602001806107be6024913960400191505060405180910390fd5b6001600160a01b03821661044f5760405162461bcd60e51b81526004018080602001828103825260228152602001806107296022913960400191505060405180910390fd5b6001600160a01b03808416600081815260016020908152604080832094871680845294825291829020859055815185815291517f8c5be1e5ebec7d5bd14f71427d1e84f3dd0314c0f7b2291e5b200ac8c7c3b9259281900390910190a3505050565b6001600160a01b0383166104f65760405162461bcd60e51b81526004018080602001828103825260258152602001806107996025913960400191505060405180910390fd5b6001600160a01b03821661053b5760405162461bcd60e51b81526004018080602001828103825260238152602001806107066023913960400191505060405180910390fd5b61057e8160405180606001604052806026815260200161074b602691396001600160a01b038616600090815260208190526040902054919063ffffffff61060d16565b6001600160a01b0380851660009081526020819052604080822093909355908416815220546105b3908263ffffffff6106a416565b6001600160a01b038084166000818152602081815260409182902094909455805185815290519193928716927fddf252ad1be2c89b69c2b068fc378daa952ba7f163c4a11628f55a4df523b3ef92918290030190a3505050565b6000818484111561069c5760405162461bcd60e51b81526004018080602001828103825283818151815260200191508051906020019080838360005b83811015610661578181015183820152602001610649565b50505050905090810190601f16801561068e5780820380516001836020036101000a031916815260200191505b509250505060405180910390fd5b505050900390565b6000828201838110156106fe576040805162461bcd60e51b815260206004820152601b60248201527f536166654d6174683a206164646974696f6e206f766572666c6f770000000000604482015290519081900360640190fd5b939250505056fe45524332303a207472616e7366657220746f20746865207a65726f206164647265737345524332303a20617070726f766520746f20746865207a65726f206164647265737345524332303a207472616e7366657220616d6f756e7420657863656564732062616c616e636545524332303a207472616e7366657220616d6f756e74206578636565647320616c6c6f77616e636545524332303a207472616e736665722066726f6d20746865207a65726f206164647265737345524332303a20617070726f76652066726f6d20746865207a65726f206164647265737345524332303a2064656372656173656420616c6c6f77616e63652062656c6f77207a65726fa265627a7a7231582004fbb9b14f7d3a1678bac01004a476df447ca833cb7426d631b12c404edeb1fd64736f6c63430005110032",
					"opcodes": "PUSH1 0x80 PUSH1 0x40 MSTORE PUSH2 0x83B DUP1 PUSH2 0x13 PUSH1 0x0 CODECOPY PUSH1 0x0 RETURN INVALID PUSH1 0x80 PUSH1 0x40 MSTORE CALLVALUE DUP1 ISZERO PUSH2 0x10 JUMPI PUSH1 0x0 DUP1 REVERT JUMPDEST POP PUSH1 0x4 CALLDATASIZE LT PUSH2 0x88 JUMPI PUSH1 0x0 CALLDATALOAD PUSH1 0xE0 SHR DUP1 PUSH4 0x70A08231 GT PUSH2 0x5B JUMPI DUP1 PUSH4 0x70A08231 EQ PUSH2 0x149 JUMPI DUP1 PUSH4 0xA457C2D7 EQ PUSH2 0x16F JUMPI DUP1 PUSH4 0xA9059CBB EQ PUSH2 0x19B JUMPI DUP1 PUSH4 0xDD62ED3E EQ PUSH2 0x1C7 JUMPI PUSH2 0x88 JUMP JUMPDEST DUP1 PUSH4 0x95EA7B3 EQ PUSH2 0x8D JUMPI DUP1 PUSH4 0x18160DDD EQ PUSH2 0xCD JUMPI DUP1 PUSH4 0x23B872DD EQ PUSH2 0xE7 JUMPI DUP1 PUSH4 0x39509351 EQ PUSH2 0x11D JUMPI JUMPDEST PUSH1 0x0 DUP1 REVERT JUMPDEST PUSH2 0xB9 PUSH1 0x4 DUP1 CALLDATASIZE SUB PUSH1 0x40 DUP2 LT ISZERO PUSH2 0xA3 JUMPI PUSH1 0x0 DUP1 REVERT JUMPDEST POP PUSH1 0x1 PUSH1 0x1 PUSH1 0xA0 SHL SUB DUP2 CALLDATALOAD AND SWAP1 PUSH1 0x20 ADD CALLDATALOAD PUSH2 0x1F5 JUMP JUMPDEST PUSH1 0x40 DUP1 MLOAD SWAP2 ISZERO ISZERO DUP3 MSTORE MLOAD SWAP1 DUP2 SWAP1 SUB PUSH1 0x20 ADD SWAP1 RETURN JUMPDEST PUSH2 0xD5 PUSH2 0x212 JUMP JUMPDEST PUSH1 0x40 DUP1 MLOAD SWAP2 DUP3 MSTORE MLOAD SWAP1 DUP2 SWAP1 SUB PUSH1 0x20 ADD SWAP1 RETURN JUMPDEST PUSH2 0xB9 PUSH1 0x4 DUP1 CALLDATASIZE SUB PUSH1 0x60 DUP2 LT ISZERO PUSH2 0xFD JUMPI PUSH1 0x0 DUP1 REVERT JUMPDEST POP PUSH1 0x1 PUSH1 0x1 PUSH1 0xA0 SHL SUB DUP2 CALLDATALOAD DUP2 AND SWAP2 PUSH1 0x20 DUP2 ADD CALLDATALOAD SWAP1 SWAP2 AND SWAP1 PUSH1 0x40 ADD CALLDATALOAD PUSH2 0x218 JUMP JUMPDEST PUSH2 0xB9 PUSH1 0x4 DUP1 CALLDATASIZE SUB PUSH1 0x40 DUP2 LT ISZERO PUSH2 0x133 JUMPI PUSH1 0x0 DUP1 REVERT JUMPDEST POP PUSH1 0x1 PUSH1 0x1 PUSH1 0xA0 SHL SUB DUP2 CALLDATALOAD AND SWAP1 PUSH1 0x20 ADD CALLDATALOAD PUSH2 0x2A5 JUMP JUMPDEST PUSH2 0xD5 PUSH1 0x4 DUP1 CALLDATASIZE SUB PUSH1 0x20 DUP2 LT ISZERO PUSH2 0x15F JUMPI PUSH1 0x0 DUP1 REVERT JUMPDEST POP CALLDATALOAD PUSH1 0x1 PUSH1 0x1 PUSH1 0xA0 SHL SUB AND PUSH2 0x2F9 JUMP JUMPDEST PUSH2 0xB9 PUSH1 0x4 DUP1 CALLDATASIZE SUB PUSH1 0x40 DUP2 LT ISZERO PUSH2 0x185 JUMPI PUSH1 0x0 DUP1 REVERT JUMPDEST POP PUSH1 0x1 PUSH1 0x1 PUSH1 0xA0 SHL SUB DUP2 CALLDATALOAD AND SWAP1 PUSH1 0x20 ADD CALLDATALOAD PUSH2 0x314 JUMP JUMPDEST PUSH2 0xB9 PUSH1 0x4 DUP1 CALLDATASIZE SUB PUSH1 0x40 DUP2 LT ISZERO PUSH2 0x1B1 JUMPI PUSH1 0x0 DUP1 REVERT JUMPDEST POP PUSH1 0x1 PUSH1 0x1 PUSH1 0xA0 SHL SUB DUP2 CALLDATALOAD AND SWAP1 PUSH1 0x20 ADD CALLDATALOAD PUSH2 0x382 JUMP JUMPDEST PUSH2 0xD5 PUSH1 0x4 DUP1 CALLDATASIZE SUB PUSH1 0x40 DUP2 LT ISZERO PUSH2 0x1DD JUMPI PUSH1 0x0 DUP1 REVERT JUMPDEST POP PUSH1 0x1 PUSH1 0x1 PUSH1 0xA0 SHL SUB DUP2 CALLDATALOAD DUP2 AND SWAP2 PUSH1 0x20 ADD CALLDATALOAD AND PUSH2 0x396 JUMP JUMPDEST PUSH1 0x0 PUSH2 0x209 PUSH2 0x202 PUSH2 0x3C1 JUMP JUMPDEST DUP5 DUP5 PUSH2 0x3C5 JUMP JUMPDEST POP PUSH1 0x1 SWAP3 SWAP2 POP POP JUMP JUMPDEST PUSH1 0x2 SLOAD SWAP1 JUMP JUMPDEST PUSH1 0x0 PUSH2 0x225 DUP5 DUP5 DUP5 PUSH2 0x4B1 JUMP JUMPDEST PUSH2 0x29B DUP5 PUSH2 0x231 PUSH2 0x3C1 JUMP JUMPDEST PUSH2 0x296 DUP6 PUSH1 0x40 MLOAD DUP1 PUSH1 0x60 ADD PUSH1 0x40 MSTORE DUP1 PUSH1 0x28 DUP2 MSTORE PUSH1 0x20 ADD PUSH2 0x771 PUSH1 0x28 SWAP2 CODECOPY PUSH1 0x1 PUSH1 0x1 PUSH1 0xA0 SHL SUB DUP11 AND PUSH1 0x0 SWAP1 DUP2 MSTORE PUSH1 0x1 PUSH1 0x20 MSTORE PUSH1 0x40 DUP2 KECCAK256 SWAP1 PUSH2 0x26F PUSH2 0x3C1 JUMP JUMPDEST PUSH1 0x1 PUSH1 0x1 PUSH1 0xA0 SHL SUB AND DUP2 MSTORE PUSH1 0x20 DUP2 ADD SWAP2 SWAP1 SWAP2 MSTORE PUSH1 0x40 ADD PUSH1 0x0 KECCAK256 SLOAD SWAP2 SWAP1 PUSH4 0xFFFFFFFF PUSH2 0x60D AND JUMP JUMPDEST PUSH2 0x3C5 JUMP JUMPDEST POP PUSH1 0x1 SWAP4 SWAP3 POP POP POP JUMP JUMPDEST PUSH1 0x0 PUSH2 0x209 PUSH2 0x2B2 PUSH2 0x3C1 JUMP JUMPDEST DUP5 PUSH2 0x296 DUP6 PUSH1 0x1 PUSH1 0x0 PUSH2 0x2C3 PUSH2 0x3C1 JUMP JUMPDEST PUSH1 0x1 PUSH1 0x1 PUSH1 0xA0 SHL SUB SWAP1 DUP2 AND DUP3 MSTORE PUSH1 0x20 DUP1 DUP4 ADD SWAP4 SWAP1 SWAP4 MSTORE PUSH1 0x40 SWAP2 DUP3 ADD PUSH1 0x0 SWAP1 DUP2 KECCAK256 SWAP2 DUP13 AND DUP2 MSTORE SWAP3 MSTORE SWAP1 KECCAK256 SLOAD SWAP1 PUSH4 0xFFFFFFFF PUSH2 0x6A4 AND JUMP JUMPDEST PUSH1 0x1 PUSH1 0x1 PUSH1 0xA0 SHL SUB AND PUSH1 0x0 SWAP1 DUP2 MSTORE PUSH1 0x20 DUP2 SWAP1 MSTORE PUSH1 0x40 SWAP1 KECCAK256 SLOAD SWAP1 JUMP JUMPDEST PUSH1 0x0 PUSH2 0x209 PUSH2 0x321 PUSH2 0x3C1 JUMP JUMPDEST DUP5 PUSH2 0x296 DUP6 PUSH1 0x40 MLOAD DUP1 PUSH1 0x60 ADD PUSH1 0x40 MSTORE DUP1 PUSH1 0x25 DUP2 MSTORE PUSH1 0x20 ADD PUSH2 0x7E2 PUSH1 0x25 SWAP2 CODECOPY PUSH1 0x1 PUSH1 0x0 PUSH2 0x34B PUSH2 0x3C1 JUMP JUMPDEST PUSH1 0x1 PUSH1 0x1 PUSH1 0xA0 SHL SUB SWAP1 DUP2 AND DUP3 MSTORE PUSH1 0x20 DUP1 DUP4 ADD SWAP4 SWAP1 SWAP4 MSTORE PUSH1 0x40 SWAP2 DUP3 ADD PUSH1 0x0 SWAP1 DUP2 KECCAK256 SWAP2 DUP14 AND DUP2 MSTORE SWAP3 MSTORE SWAP1 KECCAK256 SLOAD SWAP2 SWAP1 PUSH4 0xFFFFFFFF PUSH2 0x60D AND JUMP JUMPDEST PUSH1 0x0 PUSH2 0x209 PUSH2 0x38F PUSH2 0x3C1 JUMP JUMPDEST DUP5 DUP5 PUSH2 0x4B1 JUMP JUMPDEST PUSH1 0x1 PUSH1 0x1 PUSH1 0xA0 SHL SUB SWAP2 DUP3 AND PUSH1 0x0 SWAP1 DUP2 MSTORE PUSH1 0x1 PUSH1 0x20 SWAP1 DUP2 MSTORE PUSH1 0x40 DUP1 DUP4 KECCAK256 SWAP4 SWAP1 SWAP5 AND DUP3 MSTORE SWAP2 SWAP1 SWAP2 MSTORE KECCAK256 SLOAD SWAP1 JUMP JUMPDEST CALLER SWAP1 JUMP JUMPDEST PUSH1 0x1 PUSH1 0x1 PUSH1 0xA0 SHL SUB DUP4 AND PUSH2 0x40A JUMPI PUSH1 0x40 MLOAD PUSH3 0x461BCD PUSH1 0xE5 SHL DUP2 MSTORE PUSH1 0x4 ADD DUP1 DUP1 PUSH1 0x20 ADD DUP3 DUP2 SUB DUP3 MSTORE PUSH1 0x24 DUP2 MSTORE PUSH1 0x20 ADD DUP1 PUSH2 0x7BE PUSH1 0x24 SWAP2 CODECOPY PUSH1 0x40 ADD SWAP2 POP POP PUSH1 0x40 MLOAD DUP1 SWAP2 SUB SWAP1 REVERT JUMPDEST PUSH1 0x1 PUSH1 0x1 PUSH1 0xA0 SHL SUB DUP3 AND PUSH2 0x44F JUMPI PUSH1 0x40 MLOAD PUSH3 0x461BCD PUSH1 0xE5 SHL DUP2 MSTORE PUSH1 0x4 ADD DUP1 DUP1 PUSH1 0x20 ADD DUP3 DUP2 SUB DUP3 MSTORE PUSH1 0x22 DUP2 MSTORE PUSH1 0x20 ADD DUP1 PUSH2 0x729 PUSH1 0x22 SWAP2 CODECOPY PUSH1 0x40 ADD SWAP2 POP POP PUSH1 0x40 MLOAD DUP1 SWAP2 SUB SWAP1 REVERT JUMPDEST PUSH1 0x1 PUSH1 0x1 PUSH1 0xA0 SHL SUB DUP1 DUP5 AND PUSH1 0x0 DUP2 DUP2 MSTORE PUSH1 0x1 PUSH1 0x20 SWAP1 DUP2 MSTORE PUSH1 0x40 DUP1 DUP4 KECCAK256 SWAP5 DUP8 AND DUP1 DUP5 MSTORE SWAP5 DUP3 MSTORE SWAP2 DUP3 SWAP1 KECCAK256 DUP6 SWAP1 SSTORE DUP2 MLOAD DUP6 DUP2 MSTORE SWAP2 MLOAD PUSH32 0x8C5BE1E5EBEC7D5BD14F71427D1E84F3DD0314C0F7B2291E5B200AC8C7C3B925 SWAP3 DUP2 SWAP1 SUB SWAP1 SWAP2 ADD SWAP1 LOG3 POP POP POP JUMP JUMPDEST PUSH1 0x1 PUSH1 0x1 PUSH1 0xA0 SHL SUB DUP4 AND PUSH2 0x4F6 JUMPI PUSH1 0x40 MLOAD PUSH3 0x461BCD PUSH1 0xE5 SHL DUP2 MSTORE PUSH1 0x4 ADD DUP1 DUP1 PUSH1 0x20 ADD DUP3 DUP2 SUB DUP3 MSTORE PUSH1 0x25 DUP2 MSTORE PUSH1 0x20 ADD DUP1 PUSH2 0x799 PUSH1 0x25 SWAP2 CODECOPY PUSH1 0x40 ADD SWAP2 POP POP PUSH1 0x40 MLOAD DUP1 SWAP2 SUB SWAP1 REVERT JUMPDEST PUSH1 0x1 PUSH1 0x1 PUSH1 0xA0 SHL SUB DUP3 AND PUSH2 0x53B JUMPI PUSH1 0x40 MLOAD PUSH3 0x461BCD PUSH1 0xE5 SHL DUP2 MSTORE PUSH1 0x4 ADD DUP1 DUP1 PUSH1 0x20 ADD DUP3 DUP2 SUB DUP3 MSTORE PUSH1 0x23 DUP2 MSTORE PUSH1 0x20 ADD DUP1 PUSH2 0x706 PUSH1 0x23 SWAP2 CODECOPY PUSH1 0x40 ADD SWAP2 POP POP PUSH1 0x40 MLOAD DUP1 SWAP2 SUB SWAP1 REVERT JUMPDEST PUSH2 0x57E DUP2 PUSH1 0x40 MLOAD DUP1 PUSH1 0x60 ADD PUSH1 0x40 MSTORE DUP1 PUSH1 0x26 DUP2 MSTORE PUSH1 0x20 ADD PUSH2 0x74B PUSH1 0x26 SWAP2 CODECOPY PUSH1 0x1 PUSH1 0x1 PUSH1 0xA0 SHL SUB DUP7 AND PUSH1 0x0 SWAP1 DUP2 MSTORE PUSH1 0x20 DUP2 SWAP1 MSTORE PUSH1 0x40 SWAP1 KECCAK256 SLOAD SWAP2 SWAP1 PUSH4 0xFFFFFFFF PUSH2 0x60D AND JUMP JUMPDEST PUSH1 0x1 PUSH1 0x1 PUSH1 0xA0 SHL SUB DUP1 DUP6 AND PUSH1 0x0 SWAP1 DUP2 MSTORE PUSH1 0x20 DUP2 SWAP1 MSTORE PUSH1 0x40 DUP1 DUP3 KECCAK256 SWAP4 SWAP1 SWAP4 SSTORE SWAP1 DUP5 AND DUP2 MSTORE KECCAK256 SLOAD PUSH2 0x5B3 SWAP1 DUP3 PUSH4 0xFFFFFFFF PUSH2 0x6A4 AND JUMP JUMPDEST PUSH1 0x1 PUSH1 0x1 PUSH1 0xA0 SHL SUB DUP1 DUP5 AND PUSH1 0x0 DUP2 DUP2 MSTORE PUSH1 0x20 DUP2 DUP2 MSTORE PUSH1 0x40 SWAP2 DUP3 SWAP1 KECCAK256 SWAP5 SWAP1 SWAP5 SSTORE DUP1 MLOAD DUP6 DUP2 MSTORE SWAP1 MLOAD SWAP2 SWAP4 SWAP3 DUP8 AND SWAP3 PUSH32 0xDDF252AD1BE2C89B69C2B068FC378DAA952BA7F163C4A11628F55A4DF523B3EF SWAP3 SWAP2 DUP3 SWAP1 SUB ADD SWAP1 LOG3 POP POP POP JUMP JUMPDEST PUSH1 0x0 DUP2 DUP5 DUP5 GT ISZERO PUSH2 0x69C JUMPI PUSH1 0x40 MLOAD PUSH3 0x461BCD PUSH1 0xE5 SHL DUP2 MSTORE PUSH1 0x4 ADD DUP1 DUP1 PUSH1 0x20 ADD DUP3 DUP2 SUB DUP3 MSTORE DUP4 DUP2 DUP2 MLOAD DUP2 MSTORE PUSH1 0x20 ADD SWAP2 POP DUP1 MLOAD SWAP1 PUSH1 0x20 ADD SWAP1 DUP1 DUP4 DUP4 PUSH1 0x0 JUMPDEST DUP4 DUP2 LT ISZERO PUSH2 0x661 JUMPI DUP2 DUP2 ADD MLOAD DUP4 DUP3 ADD MSTORE PUSH1 0x20 ADD PUSH2 0x649 JUMP JUMPDEST POP POP POP POP SWAP1 POP SWAP1 DUP2 ADD SWAP1 PUSH1 0x1F AND DUP1 ISZERO PUSH2 0x68E JUMPI DUP1 DUP3 SUB DUP1 MLOAD PUSH1 0x1 DUP4 PUSH1 0x20 SUB PUSH2 0x100 EXP SUB NOT AND DUP2 MSTORE PUSH1 0x20 ADD SWAP2 POP JUMPDEST POP SWAP3 POP POP POP PUSH1 0x40 MLOAD DUP1 SWAP2 SUB SWAP1 REVERT JUMPDEST POP POP POP SWAP1 SUB SWAP1 JUMP JUMPDEST PUSH1 0x0 DUP3 DUP3 ADD DUP4 DUP2 LT ISZERO PUSH2 0x6FE JUMPI PUSH1 0x40 DUP1 MLOAD PUSH3 0x461BCD PUSH1 0xE5 SHL DUP2 MSTORE PUSH1 0x20 PUSH1 0x4 DUP3 ADD MSTORE PUSH1 0x1B PUSH1 0x24 DUP3 ADD MSTORE PUSH32 0x536166654D6174683A206164646974696F6E206F766572666C6F770000000000 PUSH1 0x44 DUP3 ADD MSTORE SWAP1 MLOAD SWAP1 DUP2 SWAP1 SUB PUSH1 0x64 ADD SWAP1 REVERT JUMPDEST SWAP4 SWAP3 POP POP POP JUMP INVALID GASLIMIT MSTORE NUMBER ORIGIN ADDRESS GASPRICE KECCAK256 PUSH21 0x72616E7366657220746F20746865207A65726F2061 PUSH5 0x6472657373 GASLIMIT MSTORE NUMBER ORIGIN ADDRESS GASPRICE KECCAK256 PUSH2 0x7070 PUSH19 0x6F766520746F20746865207A65726F20616464 PUSH19 0x65737345524332303A207472616E7366657220 PUSH2 0x6D6F PUSH22 0x6E7420657863656564732062616C616E636545524332 ADDRESS GASPRICE KECCAK256 PUSH21 0x72616E7366657220616D6F756E7420657863656564 PUSH20 0x20616C6C6F77616E636545524332303A20747261 PUSH15 0x736665722066726F6D20746865207A PUSH6 0x726F20616464 PUSH19 0x65737345524332303A20617070726F76652066 PUSH19 0x6F6D20746865207A65726F2061646472657373 GASLIMIT MSTORE NUMBER ORIGIN ADDRESS GASPRICE KECCAK256 PUSH5 0x6563726561 PUSH20 0x656420616C6C6F77616E63652062656C6F77207A PUSH6 0x726FA265627A PUSH27 0x7231582004FBB9B14F7D3A1678BAC01004A476DF447CA833CB7426 0xD6 BALANCE 0xB1 0x2C BLOCKHASH 0x4E 0xDE 0xB1 REVERT PUSH5 0x736F6C6343 STOP SDIV GT STOP ORIGIN "
				},
				"gasEstimates": {
					"creation": {
						"codeDepositCost": "421400",
						"executionCost": "431",
						"totalCost": "421831"
					},
					"external": {
						"allowance(address,address)": "1316",
						"approve(address,uint256)": "infinite",
						"balanceOf(address)": "1145",
						"decreaseAllowance(address,uint256)": "infinite",
						"increaseAllowance(address,uint256)": "infinite",
						"totalSupply()": "1021",
						"transfer(address,uint256)": "infinite",
						"transferFrom(address,address,uint256)": "infinite"
					},
					"internal": {
						"_approve(address,address,uint256)": "infinite",
						"_burn(address,uint256)": "infinite",
						"_burnFrom(address,uint256)": "infinite",
						"_mint(address,uint256)": "infinite",
						"_transfer(address,address,uint256)": "infinite"
					}
				},
				"methodIdentifiers": {
					"allowance(address,address)": "dd62ed3e",
					"approve(address,uint256)": "095ea7b3",
					"balanceOf(address)": "70a08231",
					"decreaseAllowance(address,uint256)": "a457c2d7",
					"increaseAllowance(address,uint256)": "39509351",
					"totalSupply()": "18160ddd",
					"transfer(address,uint256)": "a9059cbb",
					"transferFrom(address,address,uint256)": "23b872dd"
				}
			},
			"storageLayout": {
				"storage": [
					{
						"astId": 264,
						"contract": "github/OpenZeppelin/openzeppelin-contracts/contracts/token/ERC20/ERC20.sol:ERC20",
						"label": "_balances",
						"offset": 0,
						"slot": "0",
						"type": "t_mapping(t_address,t_uint256)"
					},
					{
						"astId": 270,
						"contract": "github/OpenZeppelin/openzeppelin-contracts/contracts/token/ERC20/ERC20.sol:ERC20",
						"label": "_allowances",
						"offset": 0,
						"slot": "1",
						"type": "t_mapping(t_address,t_mapping(t_address,t_uint256))"
					},
					{
						"astId": 272,
						"contract": "github/OpenZeppelin/openzeppelin-contracts/contracts/token/ERC20/ERC20.sol:ERC20",
						"label": "_totalSupply",
						"offset": 0,
						"slot": "2",
						"type": "t_uint256"
					}
				],
				"types": {
					"t_address": {
						"encoding": "inplace",
						"label": "address",
						"numberOfBytes": "20"
					},
					"t_mapping(t_address,t_mapping(t_address,t_uint256))": {
						"encoding": "mapping",
						"key": "t_address",
						"label": "mapping(address => mapping(address => uint256))",
						"numberOfBytes": "32",
						"value": "t_mapping(t_address,t_uint256)"
					},
					"t_mapping(t_address,t_uint256)": {
						"encoding": "mapping",
						"key": "t_address",
						"label": "mapping(address => uint256)",
						"numberOfBytes": "32",
						"value": "t_uint256"
					},
					"t_uint256": {
						"encoding": "inplace",
						"label": "uint256",
						"numberOfBytes": "32"
					}
				}
			},
			"userdoc": {
				"methods": {}
			}
		}
	}
}